{
  "contractName": "OpenRiver",
  "abi": [
    {
      "inputs": [],
      "stateMutability": "nonpayable",
      "type": "constructor"
    },
    {
      "anonymous": false,
      "inputs": [
        {
          "indexed": false,
          "internalType": "uint256",
          "name": "id",
          "type": "uint256"
        },
        {
          "indexed": false,
          "internalType": "string",
          "name": "name",
          "type": "string"
        },
        {
          "indexed": false,
          "internalType": "uint256",
          "name": "price",
          "type": "uint256"
        },
        {
          "indexed": false,
          "internalType": "address payable",
          "name": "owner",
          "type": "address"
        },
        {
          "indexed": false,
          "internalType": "bool",
          "name": "isPurchased",
          "type": "bool"
        },
        {
          "indexed": false,
          "internalType": "string",
          "name": "description",
          "type": "string"
        },
        {
          "indexed": false,
          "internalType": "string",
          "name": "imgHash",
          "type": "string"
        }
      ],
      "name": "ArtworkCreated",
      "type": "event"
    },
    {
      "anonymous": false,
      "inputs": [
        {
          "indexed": false,
          "internalType": "uint256",
          "name": "id",
          "type": "uint256"
        },
        {
          "indexed": false,
          "internalType": "string",
          "name": "name",
          "type": "string"
        },
        {
          "indexed": false,
          "internalType": "uint256",
          "name": "price",
          "type": "uint256"
        },
        {
          "indexed": false,
          "internalType": "address payable",
          "name": "owner",
          "type": "address"
        },
        {
          "indexed": false,
          "internalType": "bool",
          "name": "isPurchased",
          "type": "bool"
        },
        {
          "indexed": false,
          "internalType": "string",
          "name": "description",
          "type": "string"
        },
        {
          "indexed": false,
          "internalType": "string",
          "name": "imgHash",
          "type": "string"
        }
      ],
      "name": "ArtworkSold",
      "type": "event"
    },
    {
      "inputs": [],
      "name": "artworkCount",
      "outputs": [
        {
          "internalType": "uint256",
          "name": "",
          "type": "uint256"
        }
      ],
      "stateMutability": "view",
      "type": "function",
      "constant": true
    },
    {
      "inputs": [
        {
          "internalType": "uint256",
          "name": "",
          "type": "uint256"
        }
      ],
      "name": "artworks",
      "outputs": [
        {
          "internalType": "uint256",
          "name": "id",
          "type": "uint256"
        },
        {
          "internalType": "string",
          "name": "name",
          "type": "string"
        },
        {
          "internalType": "uint256",
          "name": "price",
          "type": "uint256"
        },
        {
          "internalType": "address payable",
          "name": "owner",
          "type": "address"
        },
        {
          "internalType": "bool",
          "name": "isPurchased",
          "type": "bool"
        },
        {
          "internalType": "string",
          "name": "description",
          "type": "string"
        },
        {
          "internalType": "string",
          "name": "imgHash",
          "type": "string"
        }
      ],
      "stateMutability": "view",
      "type": "function",
      "constant": true
    },
    {
      "inputs": [],
      "name": "productName",
      "outputs": [
        {
          "internalType": "string",
          "name": "",
          "type": "string"
        }
      ],
      "stateMutability": "view",
      "type": "function",
      "constant": true
    },
    {
      "inputs": [],
      "name": "transactionCount",
      "outputs": [
        {
          "internalType": "uint256",
          "name": "",
          "type": "uint256"
        }
      ],
      "stateMutability": "view",
      "type": "function",
      "constant": true
    },
    {
      "inputs": [
        {
          "internalType": "uint256",
          "name": "",
          "type": "uint256"
        }
      ],
      "name": "transactions",
      "outputs": [
        {
          "internalType": "uint256",
          "name": "TransactionID",
          "type": "uint256"
        },
        {
          "internalType": "uint256",
          "name": "value",
          "type": "uint256"
        },
        {
          "internalType": "address",
          "name": "from",
          "type": "address"
        },
        {
          "internalType": "address",
          "name": "to",
          "type": "address"
        },
        {
          "internalType": "string",
          "name": "imgHash",
          "type": "string"
        }
      ],
      "stateMutability": "view",
      "type": "function",
      "constant": true
    },
    {
      "inputs": [
        {
          "internalType": "string",
          "name": "_name",
          "type": "string"
        },
        {
          "internalType": "uint256",
          "name": "_price",
          "type": "uint256"
        },
        {
          "internalType": "string",
          "name": "_description",
          "type": "string"
        },
        {
          "internalType": "string",
          "name": "_imgHash",
          "type": "string"
        }
      ],
      "name": "uploadArtwork",
      "outputs": [],
      "stateMutability": "payable",
      "type": "function",
      "payable": true
    },
    {
      "inputs": [
        {
          "internalType": "uint256",
          "name": "_id",
          "type": "uint256"
        }
      ],
      "name": "purchaseProduct",
      "outputs": [],
      "stateMutability": "payable",
      "type": "function",
      "payable": true
    }
  ],
  "bytecode": "0x6080604052600060015560006002553480156200001b57600080fd5b506040518060400160405280600781526020017f50726f6a65637400000000000000000000000000000000000000000000000000815250600090805190602001906200006992919062000070565b5062000185565b8280546200007e9062000120565b90600052602060002090601f016020900481019282620000a25760008555620000ee565b82601f10620000bd57805160ff1916838001178555620000ee565b82800160010185558215620000ee579182015b82811115620000ed578251825591602001919060010190620000d0565b5b509050620000fd919062000101565b5090565b5b808211156200011c57600081600090555060010162000102565b5090565b600060028204905060018216806200013957607f821691505b6020821081141562000150576200014f62000156565b5b50919050565b7f4e487b7100000000000000000000000000000000000000000000000000000000600052602260045260246000fd5b6114c380620001956000396000f3fe6080604052600436106100705760003560e01c80639ace38c21161004e5780639ace38c2146100ff578063a087644514610140578063b77bf6001461016b578063c6f3f8d81461019657610070565b806338e76a03146100755780634b602673146100915780637f7650eb146100d4575b600080fd5b61008f600480360381019061008a9190610f75565b6101b2565b005b34801561009d57600080fd5b506100b860048036038101906100b39190610f75565b61081a565b6040516100cb97969594939291906110da565b60405180910390f35b3480156100e057600080fd5b506100e9610a21565b6040516100f6919061105d565b60405180910390f35b34801561010b57600080fd5b5061012660048036038101906101219190610f75565b610aaf565b60405161013795949392919061115e565b60405180910390f35b34801561014c57600080fd5b50610155610bad565b60405161016291906110bf565b60405180910390f35b34801561017757600080fd5b50610180610bb3565b60405161018d91906110bf565b60405180910390f35b6101b060048036038101906101ab9190610eba565b610bb9565b005b60003390506000600360008481526020019081526020016000206040518060e0016040529081600082015481526020016001820180546101f1906112c6565b80601f016020809104026020016040519081016040528092919081815260200182805461021d906112c6565b801561026a5780601f1061023f5761010080835404028352916020019161026a565b820191906000526020600020905b81548152906001019060200180831161024d57829003601f168201915b50505050508152602001600282015481526020016003820160009054906101000a900473ffffffffffffffffffffffffffffffffffffffff1673ffffffffffffffffffffffffffffffffffffffff1673ffffffffffffffffffffffffffffffffffffffff1681526020016003820160149054906101000a900460ff161515151581526020016004820180546102fe906112c6565b80601f016020809104026020016040519081016040528092919081815260200182805461032a906112c6565b80156103775780601f1061034c57610100808354040283529160200191610377565b820191906000526020600020905b81548152906001019060200180831161035a57829003601f168201915b50505050508152602001600582018054610390906112c6565b80601f01602080910402602001604051908101604052809291908181526020018280546103bc906112c6565b80156104095780601f106103de57610100808354040283529160200191610409565b820191906000526020600020905b8154815290600101906020018083116103ec57829003601f168201915b50505050508152505090506000816060015190506001548260000151111561043057600080fd5b8160400151341015610477576040517f08c379a000000000000000000000000000000000000000000000000000000000815260040161046e9061109f565b60405180910390fd5b81608001511561048657600080fd5b3373ffffffffffffffffffffffffffffffffffffffff168173ffffffffffffffffffffffffffffffffffffffff1614156104f5576040517f08c379a00000000000000000000000000000000000000000000000000000000081526004016104ec9061107f565b60405180910390fd5b6002600081548092919061050890611329565b91905055508073ffffffffffffffffffffffffffffffffffffffff166108fc349081150290604051600060405180830381858888f19350505050158015610553573d6000803e3d6000fd5b5060018260800190151590811515815250506040518060a00160405280600254815260200183604001518152602001836060015173ffffffffffffffffffffffffffffffffffffffff1681526020018473ffffffffffffffffffffffffffffffffffffffff1681526020018360c00151815250600460006002548152602001908152602001600020600082015181600001556020820151816001015560408201518160020160006101000a81548173ffffffffffffffffffffffffffffffffffffffff021916908373ffffffffffffffffffffffffffffffffffffffff16021790555060608201518160030160006101000a81548173ffffffffffffffffffffffffffffffffffffffff021916908373ffffffffffffffffffffffffffffffffffffffff1602179055506080820151816004019080519060200190610699929190610d92565b5090505033826060019073ffffffffffffffffffffffffffffffffffffffff16908173ffffffffffffffffffffffffffffffffffffffff1681525050816003600086815260200190815260200160002060008201518160000155602082015181600101908051906020019061070f929190610d92565b506040820151816002015560608201518160030160006101000a81548173ffffffffffffffffffffffffffffffffffffffff021916908373ffffffffffffffffffffffffffffffffffffffff16021790555060808201518160030160146101000a81548160ff02191690831515021790555060a082015181600401908051906020019061079d929190610d92565b5060c08201518160050190805190602001906107ba929190610d92565b509050507f087d65beceaf81050a21d5789b62168376048c31fcd7d59c01cde0fae6dd2768600154836020015184604001518660018760a001518860c0015160405161080c97969594939291906110da565b60405180910390a150505050565b6003602052806000526040600020600091509050806000015490806001018054610843906112c6565b80601f016020809104026020016040519081016040528092919081815260200182805461086f906112c6565b80156108bc5780601f10610891576101008083540402835291602001916108bc565b820191906000526020600020905b81548152906001019060200180831161089f57829003601f168201915b5050505050908060020154908060030160009054906101000a900473ffffffffffffffffffffffffffffffffffffffff16908060030160149054906101000a900460ff1690806004018054610910906112c6565b80601f016020809104026020016040519081016040528092919081815260200182805461093c906112c6565b80156109895780601f1061095e57610100808354040283529160200191610989565b820191906000526020600020905b81548152906001019060200180831161096c57829003601f168201915b50505050509080600501805461099e906112c6565b80601f01602080910402602001604051908101604052809291908181526020018280546109ca906112c6565b8015610a175780601f106109ec57610100808354040283529160200191610a17565b820191906000526020600020905b8154815290600101906020018083116109fa57829003601f168201915b5050505050905087565b60008054610a2e906112c6565b80601f0160208091040260200160405190810160405280929190818152602001828054610a5a906112c6565b8015610aa75780601f10610a7c57610100808354040283529160200191610aa7565b820191906000526020600020905b815481529060010190602001808311610a8a57829003601f168201915b505050505081565b60046020528060005260406000206000915090508060000154908060010154908060020160009054906101000a900473ffffffffffffffffffffffffffffffffffffffff16908060030160009054906101000a900473ffffffffffffffffffffffffffffffffffffffff1690806004018054610b2a906112c6565b80601f0160208091040260200160405190810160405280929190818152602001828054610b56906112c6565b8015610ba35780601f10610b7857610100808354040283529160200191610ba3565b820191906000526020600020905b815481529060010190602001808311610b8657829003601f168201915b5050505050905085565b60015481565b60025481565b6000845111610bc757600080fd5b60008311610bd457600080fd5b6000815111610be257600080fd5b6000825111610bf057600080fd5b600033905060016000815480929190610c0890611329565b91905055506040518060e0016040528060015481526020018681526020018581526020018273ffffffffffffffffffffffffffffffffffffffff16815260200160001515815260200184815260200183815250600360006001548152602001908152602001600020600082015181600001556020820151816001019080519060200190610c96929190610d92565b506040820151816002015560608201518160030160006101000a81548173ffffffffffffffffffffffffffffffffffffffff021916908373ffffffffffffffffffffffffffffffffffffffff16021790555060808201518160030160146101000a81548160ff02191690831515021790555060a0820151816004019080519060200190610d24929190610d92565b5060c0820151816005019080519060200190610d41929190610d92565b509050507f80886ffcc566a2a51a797f1238299d7a54eed846b702975478319ba0a9d26c2d60015486868460008888604051610d8397969594939291906110da565b60405180910390a15050505050565b828054610d9e906112c6565b90600052602060002090601f016020900481019282610dc05760008555610e07565b82601f10610dd957805160ff1916838001178555610e07565b82800160010185558215610e07579182015b82811115610e06578251825591602001919060010190610deb565b5b509050610e149190610e18565b5090565b5b80821115610e31576000816000905550600101610e19565b5090565b6000610e48610e43846111dd565b6111b8565b905082815260208101848484011115610e6457610e63611404565b5b610e6f848285611284565b509392505050565b600082601f830112610e8c57610e8b6113ff565b5b8135610e9c848260208601610e35565b91505092915050565b600081359050610eb481611476565b92915050565b60008060008060808587031215610ed457610ed361140e565b5b600085013567ffffffffffffffff811115610ef257610ef1611409565b5b610efe87828801610e77565b9450506020610f0f87828801610ea5565b935050604085013567ffffffffffffffff811115610f3057610f2f611409565b5b610f3c87828801610e77565b925050606085013567ffffffffffffffff811115610f5d57610f5c611409565b5b610f6987828801610e77565b91505092959194509250565b600060208284031215610f8b57610f8a61140e565b5b6000610f9984828501610ea5565b91505092915050565b610fab8161123c565b82525050565b610fba8161122a565b82525050565b610fc98161124e565b82525050565b6000610fda8261120e565b610fe48185611219565b9350610ff4818560208601611293565b610ffd81611413565b840191505092915050565b6000611015601883611219565b915061102082611424565b602082019050919050565b6000611038601c83611219565b91506110438261144d565b602082019050919050565b6110578161127a565b82525050565b600060208201905081810360008301526110778184610fcf565b905092915050565b6000602082019050818103600083015261109881611008565b9050919050565b600060208201905081810360008301526110b88161102b565b9050919050565b60006020820190506110d4600083018461104e565b92915050565b600060e0820190506110ef600083018a61104e565b81810360208301526111018189610fcf565b9050611110604083018861104e565b61111d6060830187610fa2565b61112a6080830186610fc0565b81810360a083015261113c8185610fcf565b905081810360c08301526111508184610fcf565b905098975050505050505050565b600060a082019050611173600083018861104e565b611180602083018761104e565b61118d6040830186610fb1565b61119a6060830185610fb1565b81810360808301526111ac8184610fcf565b90509695505050505050565b60006111c26111d3565b90506111ce82826112f8565b919050565b6000604051905090565b600067ffffffffffffffff8211156111f8576111f76113d0565b5b61120182611413565b9050602081019050919050565b600081519050919050565b600082825260208201905092915050565b60006112358261125a565b9050919050565b60006112478261125a565b9050919050565b60008115159050919050565b600073ffffffffffffffffffffffffffffffffffffffff82169050919050565b6000819050919050565b82818337600083830152505050565b60005b838110156112b1578082015181840152602081019050611296565b838111156112c0576000848401525b50505050565b600060028204905060018216806112de57607f821691505b602082108114156112f2576112f16113a1565b5b50919050565b61130182611413565b810181811067ffffffffffffffff821117156113205761131f6113d0565b5b80604052505050565b60006113348261127a565b91507fffffffffffffffffffffffffffffffffffffffffffffffffffffffffffffffff82141561136757611366611372565b5b600182019050919050565b7f4e487b7100000000000000000000000000000000000000000000000000000000600052601160045260246000fd5b7f4e487b7100000000000000000000000000000000000000000000000000000000600052602260045260246000fd5b7f4e487b7100000000000000000000000000000000000000000000000000000000600052604160045260246000fd5b600080fd5b600080fd5b600080fd5b600080fd5b6000601f19601f8301169050919050565b7f5468697320697320686973206f776e20617274776f726b210000000000000000600082015250565b7f596f7520646f206e6f74206861766520656e6f756768206d6f6e657900000000600082015250565b61147f8161127a565b811461148a57600080fd5b5056fea26469706673582212206f6e6e6c68cbfe2ff4984a091dec4645b47972c4f9242306bebf74ccac13cb4f64736f6c63430008060033",
  "immutableReferences": {},
  "source": "pragma solidity ^0.8.0;\r\ncontract OpenRiver{\r\n\tstring public productName;\r\n\tuint public artworkCount = 0;\r\n\tuint public transactionCount = 0;\r\n\r\n\tstruct Artwork {\r\n\t\tuint id;\r\n\t\tstring name;\r\n\t\tuint price;\r\n\t\taddress payable owner;\r\n\t\tbool isPurchased;\r\n\t\tstring description;\r\n\t\tstring imgHash;\r\n\t}\r\n\tstruct Transaction {\r\n\t\tuint TransactionID;\r\n\t\tuint value;\r\n\t\taddress from;\r\n\t\taddress to;\r\n\t\tstring imgHash;\r\n\t}\r\n\tmapping(uint => Artwork) public artworks;\r\n\tmapping(uint => Transaction) public transactions;\r\n\tevent ArtworkCreated(\r\n\t\tuint id,\r\n\t\tstring name,\r\n\t\tuint price,\r\n\t\taddress payable owner,\r\n\t\tbool isPurchased,\r\n\t\tstring description,\r\n\t\tstring imgHash\r\n\r\n\t);\r\n\r\n\tevent ArtworkSold(\r\n\t\tuint id,\r\n\t\tstring name,\r\n\t\tuint price,\r\n\t\taddress payable owner,\r\n\t\tbool isPurchased,\r\n\t\tstring description,\r\n\t\tstring imgHash\r\n\t);\r\n\r\n\tconstructor() public {\r\n    \tproductName = \"Project\";\r\n  \t}\r\n\r\n  \tfunction uploadArtwork(string memory _name, uint _price, string memory _description,string memory _imgHash) public payable{\r\n  \t\trequire(bytes(_name).length > 0);\r\n  \t\trequire(_price > 0);\r\n  \t\trequire(bytes(_imgHash).length > 0);\r\n\t\trequire(bytes(_description).length > 0);\r\n  \t\taddress payable _sender;\r\n  \t\t_sender = payable(msg.sender);\r\n  \t\tartworkCount ++;\r\n  \t\tartworks[artworkCount] = Artwork(artworkCount,_name,_price,_sender,false,_description,_imgHash);\r\n  \t\temit ArtworkCreated(artworkCount,_name,_price,_sender,false,_description,_imgHash);\r\n  \t}\r\n\r\n  \tfunction purchaseProduct(uint _id) public payable {\r\n  \t\taddress payable _sender;\r\n  \t\t_sender = payable(msg.sender);\r\n  \t\tArtwork memory _artwork = artworks[_id];\r\n  \t\taddress payable _seller = _artwork.owner;\r\n \t\trequire (_artwork.id <= artworkCount);\r\n \t\trequire(msg.value >= _artwork.price, \"You do not have enough money\");\r\n \t\trequire(!_artwork.isPurchased);\r\n \t\trequire(_seller != msg.sender, \"This is his own artwork!\");\r\n  \t\ttransactionCount ++;\r\n  \t\t_seller.transfer(msg.value);\r\n  \t\t_artwork.isPurchased = true;\r\n  \t\ttransactions[transactionCount] = Transaction(transactionCount,_artwork.price,_artwork.owner,_sender,_artwork.imgHash);\r\n  \t\t_artwork.owner = payable(msg.sender);\r\n  \t\tartworks[_id] = _artwork;\r\n  \t\temit ArtworkSold(artworkCount,_artwork.name,_artwork.price,_sender,true,_artwork.description,_artwork.imgHash);\r\n  \t}\r\n\r\n  \t//check the data type of msg.sender\r\n  \t// function getID () constant returns(uint){\r\n  \t// \treturn msg.sender;\r\n  \t// }\r\n  \t\r\n}",
  "sourcePath": "C:/Users/phang/Desktop/open-river/src/contracts/OpenRiver.sol",
  "compiler": {
    "name": "solc",
    "version": "0.8.6+commit.11564f7e.Emscripten.clang"
  },
  "schemaVersion": "3.4.1",
  "updatedAt": "2021-07-29T06:52:26.139Z",
  "networkType": "ethereum",
  "devdoc": {
    "kind": "dev",
    "methods": {},
    "version": 1
  },
  "userdoc": {
    "kind": "user",
    "methods": {},
    "version": 1
  }
}