{
  "contractName": "OpenRiver",
  "abi": [
    {
      "inputs": [],
      "stateMutability": "nonpayable",
      "type": "constructor"
    },
    {
      "anonymous": false,
      "inputs": [
        {
          "indexed": false,
          "internalType": "uint256",
          "name": "id",
          "type": "uint256"
        },
        {
          "indexed": false,
          "internalType": "string",
          "name": "name",
          "type": "string"
        },
        {
          "indexed": false,
          "internalType": "uint256",
          "name": "price",
          "type": "uint256"
        },
        {
          "indexed": false,
          "internalType": "address payable",
          "name": "owner",
          "type": "address"
        },
        {
          "indexed": false,
          "internalType": "bool",
          "name": "isPurchased",
          "type": "bool"
        },
        {
          "indexed": false,
          "internalType": "string",
          "name": "imgHash",
          "type": "string"
        }
      ],
      "name": "ArtworkCreated",
      "type": "event"
    },
    {
      "anonymous": false,
      "inputs": [
        {
          "indexed": false,
          "internalType": "uint256",
          "name": "id",
          "type": "uint256"
        },
        {
          "indexed": false,
          "internalType": "string",
          "name": "name",
          "type": "string"
        },
        {
          "indexed": false,
          "internalType": "uint256",
          "name": "price",
          "type": "uint256"
        },
        {
          "indexed": false,
          "internalType": "address payable",
          "name": "owner",
          "type": "address"
        },
        {
          "indexed": false,
          "internalType": "bool",
          "name": "isPurchased",
          "type": "bool"
        },
        {
          "indexed": false,
          "internalType": "string",
          "name": "imgHash",
          "type": "string"
        }
      ],
      "name": "ArtworkSold",
      "type": "event"
    },
    {
      "inputs": [],
      "name": "artworkCount",
      "outputs": [
        {
          "internalType": "uint256",
          "name": "",
          "type": "uint256"
        }
      ],
      "stateMutability": "view",
      "type": "function",
      "constant": true
    },
    {
      "inputs": [
        {
          "internalType": "uint256",
          "name": "",
          "type": "uint256"
        }
      ],
      "name": "artworks",
      "outputs": [
        {
          "internalType": "uint256",
          "name": "id",
          "type": "uint256"
        },
        {
          "internalType": "string",
          "name": "name",
          "type": "string"
        },
        {
          "internalType": "uint256",
          "name": "price",
          "type": "uint256"
        },
        {
          "internalType": "address payable",
          "name": "owner",
          "type": "address"
        },
        {
          "internalType": "bool",
          "name": "isPurchased",
          "type": "bool"
        },
        {
          "internalType": "string",
          "name": "imgHash",
          "type": "string"
        }
      ],
      "stateMutability": "view",
      "type": "function",
      "constant": true
    },
    {
      "inputs": [],
      "name": "productName",
      "outputs": [
        {
          "internalType": "string",
          "name": "",
          "type": "string"
        }
      ],
      "stateMutability": "view",
      "type": "function",
      "constant": true
    },
    {
      "inputs": [],
      "name": "transactionCount",
      "outputs": [
        {
          "internalType": "uint256",
          "name": "",
          "type": "uint256"
        }
      ],
      "stateMutability": "view",
      "type": "function",
      "constant": true
    },
    {
      "inputs": [
        {
          "internalType": "uint256",
          "name": "",
          "type": "uint256"
        }
      ],
      "name": "transactions",
      "outputs": [
        {
          "internalType": "uint256",
          "name": "TransactionID",
          "type": "uint256"
        },
        {
          "internalType": "uint256",
          "name": "value",
          "type": "uint256"
        },
        {
          "internalType": "address",
          "name": "from",
          "type": "address"
        },
        {
          "internalType": "address",
          "name": "to",
          "type": "address"
        },
        {
          "internalType": "string",
          "name": "imgHash",
          "type": "string"
        }
      ],
      "stateMutability": "view",
      "type": "function",
      "constant": true
    },
    {
      "inputs": [
        {
          "internalType": "string",
          "name": "_name",
          "type": "string"
        },
        {
          "internalType": "uint256",
          "name": "_price",
          "type": "uint256"
        },
        {
          "internalType": "string",
          "name": "_imgHash",
          "type": "string"
        }
      ],
      "name": "uploadArtwork",
      "outputs": [],
      "stateMutability": "payable",
      "type": "function",
      "payable": true
    },
    {
      "inputs": [
        {
          "internalType": "uint256",
          "name": "_id",
          "type": "uint256"
        }
      ],
      "name": "purchaseProduct",
      "outputs": [],
      "stateMutability": "payable",
      "type": "function",
      "payable": true
    }
  ],
  "bytecode": "0x6080604052600060015560006002553480156200001b57600080fd5b506040518060400160405280600781526020017f50726f6a65637400000000000000000000000000000000000000000000000000815250600090805190602001906200006992919062000070565b5062000185565b8280546200007e9062000120565b90600052602060002090601f016020900481019282620000a25760008555620000ee565b82601f10620000bd57805160ff1916838001178555620000ee565b82800160010185558215620000ee579182015b82811115620000ed578251825591602001919060010190620000d0565b5b509050620000fd919062000101565b5090565b5b808211156200011c57600081600090555060010162000102565b5090565b600060028204905060018216806200013957607f821691505b6020821081141562000150576200014f62000156565b5b50919050565b7f4e487b7100000000000000000000000000000000000000000000000000000000600052602260045260246000fd5b61127480620001956000396000f3fe6080604052600436106100705760003560e01c80637f7650eb1161004e5780637f7650eb146100ef5780639ace38c21461011a578063a08764451461015b578063b77bf6001461018657610070565b806338e76a03146100755780634b602673146100915780636eca73cf146100d3575b600080fd5b61008f600480360381019061008a9190610da7565b6101b1565b005b34801561009d57600080fd5b506100b860048036038101906100b39190610da7565b61073e565b6040516100ca96959493929190610ec9565b60405180910390f35b6100ed60048036038101906100e89190610d1c565b6108b7565b005b3480156100fb57600080fd5b50610104610a5c565b6040516101119190610e6c565b60405180910390f35b34801561012657600080fd5b50610141600480360381019061013c9190610da7565b610aea565b604051610152959493929190610f38565b60405180910390f35b34801561016757600080fd5b50610170610be8565b60405161017d9190610eae565b60405180910390f35b34801561019257600080fd5b5061019b610bee565b6040516101a89190610eae565b60405180910390f35b60003390506000600360008481526020019081526020016000206040518060c0016040529081600082015481526020016001820180546101f0906110a0565b80601f016020809104026020016040519081016040528092919081815260200182805461021c906110a0565b80156102695780601f1061023e57610100808354040283529160200191610269565b820191906000526020600020905b81548152906001019060200180831161024c57829003601f168201915b50505050508152602001600282015481526020016003820160009054906101000a900473ffffffffffffffffffffffffffffffffffffffff1673ffffffffffffffffffffffffffffffffffffffff1673ffffffffffffffffffffffffffffffffffffffff1681526020016003820160149054906101000a900460ff161515151581526020016004820180546102fd906110a0565b80601f0160208091040260200160405190810160405280929190818152602001828054610329906110a0565b80156103765780601f1061034b57610100808354040283529160200191610376565b820191906000526020600020905b81548152906001019060200180831161035957829003601f168201915b5050505050815250509050600081606001519050600082600001511180156103a45750600154826000015111155b6103ad57600080fd5b81604001513410156103be57600080fd5b8160800151156103cd57600080fd5b3373ffffffffffffffffffffffffffffffffffffffff168173ffffffffffffffffffffffffffffffffffffffff16141561043c576040517f08c379a000000000000000000000000000000000000000000000000000000000815260040161043390610e8e565b60405180910390fd5b6002600081548092919061044f90611103565b91905055508073ffffffffffffffffffffffffffffffffffffffff166108fc349081150290604051600060405180830381858888f1935050505015801561049a573d6000803e3d6000fd5b5060018260800190151590811515815250506040518060a00160405280600254815260200183604001518152602001836060015173ffffffffffffffffffffffffffffffffffffffff1681526020018473ffffffffffffffffffffffffffffffffffffffff1681526020018360a00151815250600460006002548152602001908152602001600020600082015181600001556020820151816001015560408201518160020160006101000a81548173ffffffffffffffffffffffffffffffffffffffff021916908373ffffffffffffffffffffffffffffffffffffffff16021790555060608201518160030160006101000a81548173ffffffffffffffffffffffffffffffffffffffff021916908373ffffffffffffffffffffffffffffffffffffffff16021790555060808201518160040190805190602001906105e0929190610bf4565b5090505033826060019073ffffffffffffffffffffffffffffffffffffffff16908173ffffffffffffffffffffffffffffffffffffffff16815250508160036000868152602001908152602001600020600082015181600001556020820151816001019080519060200190610656929190610bf4565b506040820151816002015560608201518160030160006101000a81548173ffffffffffffffffffffffffffffffffffffffff021916908373ffffffffffffffffffffffffffffffffffffffff16021790555060808201518160030160146101000a81548160ff02191690831515021790555060a08201518160040190805190602001906106e4929190610bf4565b509050507f7b0f5d0fc19dc18cc1e75a63c5a1274a42be1526c545057fead68717d002a2a7600154836020015184604001518660018760a0015160405161073096959493929190610ec9565b60405180910390a150505050565b6003602052806000526040600020600091509050806000015490806001018054610767906110a0565b80601f0160208091040260200160405190810160405280929190818152602001828054610793906110a0565b80156107e05780601f106107b5576101008083540402835291602001916107e0565b820191906000526020600020905b8154815290600101906020018083116107c357829003601f168201915b5050505050908060020154908060030160009054906101000a900473ffffffffffffffffffffffffffffffffffffffff16908060030160149054906101000a900460ff1690806004018054610834906110a0565b80601f0160208091040260200160405190810160405280929190818152602001828054610860906110a0565b80156108ad5780601f10610882576101008083540402835291602001916108ad565b820191906000526020600020905b81548152906001019060200180831161089057829003601f168201915b5050505050905086565b60008351116108c557600080fd5b600082116108d257600080fd5b60008151116108e057600080fd5b6000339050600160008154809291906108f890611103565b91905055506040518060c0016040528060015481526020018581526020018481526020018273ffffffffffffffffffffffffffffffffffffffff16815260200160001515815260200183815250600360006001548152602001908152602001600020600082015181600001556020820151816001019080519060200190610980929190610bf4565b506040820151816002015560608201518160030160006101000a81548173ffffffffffffffffffffffffffffffffffffffff021916908373ffffffffffffffffffffffffffffffffffffffff16021790555060808201518160030160146101000a81548160ff02191690831515021790555060a0820151816004019080519060200190610a0e929190610bf4565b509050507f2081a1c53959478fe3c35106da0eb6f8b7a7b2144ec86e0dbec7ef0440aa2dc9600154858584600087604051610a4e96959493929190610ec9565b60405180910390a150505050565b60008054610a69906110a0565b80601f0160208091040260200160405190810160405280929190818152602001828054610a95906110a0565b8015610ae25780601f10610ab757610100808354040283529160200191610ae2565b820191906000526020600020905b815481529060010190602001808311610ac557829003601f168201915b505050505081565b60046020528060005260406000206000915090508060000154908060010154908060020160009054906101000a900473ffffffffffffffffffffffffffffffffffffffff16908060030160009054906101000a900473ffffffffffffffffffffffffffffffffffffffff1690806004018054610b65906110a0565b80601f0160208091040260200160405190810160405280929190818152602001828054610b91906110a0565b8015610bde5780601f10610bb357610100808354040283529160200191610bde565b820191906000526020600020905b815481529060010190602001808311610bc157829003601f168201915b5050505050905085565b60015481565b60025481565b828054610c00906110a0565b90600052602060002090601f016020900481019282610c225760008555610c69565b82601f10610c3b57805160ff1916838001178555610c69565b82800160010185558215610c69579182015b82811115610c68578251825591602001919060010190610c4d565b5b509050610c769190610c7a565b5090565b5b80821115610c93576000816000905550600101610c7b565b5090565b6000610caa610ca584610fb7565b610f92565b905082815260208101848484011115610cc657610cc56111de565b5b610cd184828561105e565b509392505050565b600082601f830112610cee57610ced6111d9565b5b8135610cfe848260208601610c97565b91505092915050565b600081359050610d1681611227565b92915050565b600080600060608486031215610d3557610d346111e8565b5b600084013567ffffffffffffffff811115610d5357610d526111e3565b5b610d5f86828701610cd9565b9350506020610d7086828701610d07565b925050604084013567ffffffffffffffff811115610d9157610d906111e3565b5b610d9d86828701610cd9565b9150509250925092565b600060208284031215610dbd57610dbc6111e8565b5b6000610dcb84828501610d07565b91505092915050565b610ddd81611016565b82525050565b610dec81611004565b82525050565b610dfb81611028565b82525050565b6000610e0c82610fe8565b610e168185610ff3565b9350610e2681856020860161106d565b610e2f816111ed565b840191505092915050565b6000610e47601883610ff3565b9150610e52826111fe565b602082019050919050565b610e6681611054565b82525050565b60006020820190508181036000830152610e868184610e01565b905092915050565b60006020820190508181036000830152610ea781610e3a565b9050919050565b6000602082019050610ec36000830184610e5d565b92915050565b600060c082019050610ede6000830189610e5d565b8181036020830152610ef08188610e01565b9050610eff6040830187610e5d565b610f0c6060830186610dd4565b610f196080830185610df2565b81810360a0830152610f2b8184610e01565b9050979650505050505050565b600060a082019050610f4d6000830188610e5d565b610f5a6020830187610e5d565b610f676040830186610de3565b610f746060830185610de3565b8181036080830152610f868184610e01565b90509695505050505050565b6000610f9c610fad565b9050610fa882826110d2565b919050565b6000604051905090565b600067ffffffffffffffff821115610fd257610fd16111aa565b5b610fdb826111ed565b9050602081019050919050565b600081519050919050565b600082825260208201905092915050565b600061100f82611034565b9050919050565b600061102182611034565b9050919050565b60008115159050919050565b600073ffffffffffffffffffffffffffffffffffffffff82169050919050565b6000819050919050565b82818337600083830152505050565b60005b8381101561108b578082015181840152602081019050611070565b8381111561109a576000848401525b50505050565b600060028204905060018216806110b857607f821691505b602082108114156110cc576110cb61117b565b5b50919050565b6110db826111ed565b810181811067ffffffffffffffff821117156110fa576110f96111aa565b5b80604052505050565b600061110e82611054565b91507fffffffffffffffffffffffffffffffffffffffffffffffffffffffffffffffff8214156111415761114061114c565b5b600182019050919050565b7f4e487b7100000000000000000000000000000000000000000000000000000000600052601160045260246000fd5b7f4e487b7100000000000000000000000000000000000000000000000000000000600052602260045260246000fd5b7f4e487b7100000000000000000000000000000000000000000000000000000000600052604160045260246000fd5b600080fd5b600080fd5b600080fd5b600080fd5b6000601f19601f8301169050919050565b7f5468697320697320686973206f776e20617274776f726b210000000000000000600082015250565b61123081611054565b811461123b57600080fd5b5056fea264697066735822122085d0ddc7e9231df2c46ab690aef2f3b4c27248602ee0437aa18a8dc84c17430264736f6c63430008060033",
  "immutableReferences": {},
  "source": "pragma solidity ^0.8.0;\ncontract OpenRiver{\n\tstring public productName;\n\tuint public artworkCount = 0;\n\tuint public transactionCount = 0;\n\n\tstruct Artwork {\n\t\tuint id;\n\t\tstring name;\n\t\tuint price;\n\t\taddress payable owner;\n\t\tbool isPurchased;\n\t\tstring imgHash;\n\t}\n\tstruct Transaction {\n\t\tuint TransactionID;\n\t\tuint value;\n\t\taddress from;\n\t\taddress to;\n\t\tstring imgHash;\n\t}\n\tmapping(uint => Artwork) public artworks;\n\tmapping(uint => Transaction) public transactions;\n\tevent ArtworkCreated(\n\t\tuint id,\n\t\tstring name,\n\t\tuint price,\n\t\taddress payable owner,\n\t\tbool isPurchased,\n\t\tstring imgHash\n\n\t);\n\n\tevent ArtworkSold(\n\t\tuint id,\n\t\tstring name,\n\t\tuint price,\n\t\taddress payable owner,\n\t\tbool isPurchased,\n\t\tstring imgHash\n\t);\n\n\tconstructor() public {\n    \tproductName = \"Project\";\n  \t}\n\n  \tfunction uploadArtwork(string memory _name, uint _price, string memory _imgHash) public payable{\n  \t\trequire(bytes(_name).length > 0);\n  \t\trequire(_price > 0);\n  \t\trequire(bytes(_imgHash).length > 0);\n  \t\taddress payable _sender;\n  \t\t_sender = payable(msg.sender);\n  \t\tartworkCount ++;\n  \t\tartworks[artworkCount] = Artwork(artworkCount,_name,_price,_sender,false,_imgHash);\n  \t\temit ArtworkCreated(artworkCount,_name,_price,_sender,false,_imgHash);\n  \t}\n\n  \tfunction purchaseProduct(uint _id) public payable {\n  \t\taddress payable _sender;\n  \t\t_sender = payable(msg.sender);\n  \t\tArtwork memory _artwork = artworks[_id];\n  \t\taddress payable _seller = _artwork.owner;\n  \t\trequire(_artwork.id > 0 && _artwork.id <= artworkCount);\n  \t\trequire(msg.value >= _artwork.price);\n  \t\trequire(!_artwork.isPurchased);\n  \t\trequire(_seller != msg.sender, \"This is his own artwork!\");\n  \t\ttransactionCount ++;\n  \t\t_seller.transfer(msg.value);\n  \t\t_artwork.isPurchased = true;\n  \t\ttransactions[transactionCount] = Transaction(transactionCount,_artwork.price,_artwork.owner,_sender,_artwork.imgHash);\n  \t\t_artwork.owner = payable(msg.sender);\n  \t\tartworks[_id] = _artwork;\n  \t\temit ArtworkSold(artworkCount,_artwork.name,_artwork.price,_sender,true,_artwork.imgHash);\n  \t}\n\n  \t//check the data type of msg.sender\n  \t// function getID () constant returns(uint){\n  \t// \treturn msg.sender;\n  \t// }\n  \t\n}",
  "sourcePath": "/Users/ryan/Desktop/blockchain/Project/open-river-newmaster/src/contracts/OpenRiver.sol",
  "compiler": {
    "name": "solc",
    "version": "0.8.6+commit.11564f7e.Emscripten.clang"
  },
  "schemaVersion": "3.4.2",
  "updatedAt": "2021-07-25T02:10:15.325Z",
  "networkType": "ethereum",
  "devdoc": {
    "kind": "dev",
    "methods": {},
    "version": 1
  },
  "userdoc": {
    "kind": "user",
    "methods": {},
    "version": 1
  }
}