{
  "contractName": "OpenRiver",
  "abi": [
    {
      "inputs": [],
      "stateMutability": "nonpayable",
      "type": "constructor"
    },
    {
      "anonymous": false,
      "inputs": [
        {
          "indexed": false,
          "internalType": "uint256",
          "name": "id",
          "type": "uint256"
        },
        {
          "indexed": false,
          "internalType": "string",
          "name": "name",
          "type": "string"
        },
        {
          "indexed": false,
          "internalType": "uint256",
          "name": "price",
          "type": "uint256"
        },
        {
          "indexed": false,
          "internalType": "address payable",
          "name": "owner",
          "type": "address"
        },
        {
          "indexed": false,
          "internalType": "bool",
          "name": "isPurchased",
          "type": "bool"
        },
        {
          "indexed": false,
          "internalType": "string",
          "name": "imgHash",
          "type": "string"
        }
      ],
      "name": "ArtworkCreated",
      "type": "event"
    },
    {
      "anonymous": false,
      "inputs": [
        {
          "indexed": false,
          "internalType": "uint256",
          "name": "id",
          "type": "uint256"
        },
        {
          "indexed": false,
          "internalType": "string",
          "name": "name",
          "type": "string"
        },
        {
          "indexed": false,
          "internalType": "uint256",
          "name": "price",
          "type": "uint256"
        },
        {
          "indexed": false,
          "internalType": "address payable",
          "name": "owner",
          "type": "address"
        },
        {
          "indexed": false,
          "internalType": "bool",
          "name": "isPurchased",
          "type": "bool"
        },
        {
          "indexed": false,
          "internalType": "string",
          "name": "imgHash",
          "type": "string"
        }
      ],
      "name": "ArtworkSold",
      "type": "event"
    },
    {
      "inputs": [],
      "name": "artworkCount",
      "outputs": [
        {
          "internalType": "uint256",
          "name": "",
          "type": "uint256"
        }
      ],
      "stateMutability": "view",
      "type": "function",
      "constant": true
    },
    {
      "inputs": [
        {
          "internalType": "uint256",
          "name": "",
          "type": "uint256"
        }
      ],
      "name": "artworks",
      "outputs": [
        {
          "internalType": "uint256",
          "name": "id",
          "type": "uint256"
        },
        {
          "internalType": "string",
          "name": "name",
          "type": "string"
        },
        {
          "internalType": "uint256",
          "name": "price",
          "type": "uint256"
        },
        {
          "internalType": "address payable",
          "name": "owner",
          "type": "address"
        },
        {
          "internalType": "bool",
          "name": "isPurchased",
          "type": "bool"
        },
        {
          "internalType": "string",
          "name": "imgHash",
          "type": "string"
        }
      ],
      "stateMutability": "view",
      "type": "function",
      "constant": true
    },
    {
      "inputs": [],
      "name": "productName",
      "outputs": [
        {
          "internalType": "string",
          "name": "",
          "type": "string"
        }
      ],
      "stateMutability": "view",
      "type": "function",
      "constant": true
    },
    {
      "inputs": [],
      "name": "transactionCount",
      "outputs": [
        {
          "internalType": "uint256",
          "name": "",
          "type": "uint256"
        }
      ],
      "stateMutability": "view",
      "type": "function",
      "constant": true
    },
    {
      "inputs": [
        {
          "internalType": "uint256",
          "name": "",
          "type": "uint256"
        }
      ],
      "name": "transactions",
      "outputs": [
        {
          "internalType": "uint256",
          "name": "TransactionID",
          "type": "uint256"
        },
        {
          "internalType": "uint256",
          "name": "value",
          "type": "uint256"
        },
        {
          "internalType": "address",
          "name": "from",
          "type": "address"
        },
        {
          "internalType": "address",
          "name": "to",
          "type": "address"
        },
        {
          "internalType": "string",
          "name": "imgHash",
          "type": "string"
        }
      ],
      "stateMutability": "view",
      "type": "function",
      "constant": true
    },
    {
      "inputs": [
        {
          "internalType": "string",
          "name": "_name",
          "type": "string"
        },
        {
          "internalType": "uint256",
          "name": "_price",
          "type": "uint256"
        },
        {
          "internalType": "string",
          "name": "_imgHash",
          "type": "string"
        }
      ],
      "name": "uploadArtwork",
      "outputs": [],
      "stateMutability": "payable",
      "type": "function",
      "payable": true
    },
    {
      "inputs": [
        {
          "internalType": "uint256",
          "name": "_id",
          "type": "uint256"
        }
      ],
      "name": "purchaseProduct",
      "outputs": [],
      "stateMutability": "payable",
      "type": "function",
      "payable": true
    }
  ],
  "bytecode": "0x6080604052600060015560006002553480156200001b57600080fd5b506040518060400160405280600781526020017f50726f6a65637400000000000000000000000000000000000000000000000000815250600090805190602001906200006992919062000070565b5062000185565b8280546200007e9062000120565b90600052602060002090601f016020900481019282620000a25760008555620000ee565b82601f10620000bd57805160ff1916838001178555620000ee565b82800160010185558215620000ee579182015b82811115620000ed578251825591602001919060010190620000d0565b5b509050620000fd919062000101565b5090565b5b808211156200011c57600081600090555060010162000102565b5090565b600060028204905060018216806200013957607f821691505b6020821081141562000150576200014f62000156565b5b50919050565b7f4e487b7100000000000000000000000000000000000000000000000000000000600052602260045260246000fd5b61130680620001956000396000f3fe6080604052600436106100705760003560e01c80637f7650eb1161004e5780637f7650eb146100ef5780639ace38c21461011a578063a08764451461015b578063b77bf6001461018657610070565b806338e76a03146100755780634b602673146100915780636eca73cf146100d3575b600080fd5b61008f600480360381019061008a9190610dcd565b6101b1565b005b34801561009d57600080fd5b506100b860048036038101906100b39190610dcd565b610764565b6040516100ca96959493929190610f32565b60405180910390f35b6100ed60048036038101906100e89190610d42565b6108dd565b005b3480156100fb57600080fd5b50610104610a82565b6040516101119190610eb5565b60405180910390f35b34801561012657600080fd5b50610141600480360381019061013c9190610dcd565b610b10565b604051610152959493929190610fa1565b60405180910390f35b34801561016757600080fd5b50610170610c0e565b60405161017d9190610f17565b60405180910390f35b34801561019257600080fd5b5061019b610c14565b6040516101a89190610f17565b60405180910390f35b60003390506000600360008481526020019081526020016000206040518060c0016040529081600082015481526020016001820180546101f090611109565b80601f016020809104026020016040519081016040528092919081815260200182805461021c90611109565b80156102695780601f1061023e57610100808354040283529160200191610269565b820191906000526020600020905b81548152906001019060200180831161024c57829003601f168201915b50505050508152602001600282015481526020016003820160009054906101000a900473ffffffffffffffffffffffffffffffffffffffff1673ffffffffffffffffffffffffffffffffffffffff1673ffffffffffffffffffffffffffffffffffffffff1681526020016003820160149054906101000a900460ff161515151581526020016004820180546102fd90611109565b80601f016020809104026020016040519081016040528092919081815260200182805461032990611109565b80156103765780601f1061034b57610100808354040283529160200191610376565b820191906000526020600020905b81548152906001019060200180831161035957829003601f168201915b50505050508152505090506000816060015190506001548260000151111561039d57600080fd5b81604001513410156103e4576040517f08c379a00000000000000000000000000000000000000000000000000000000081526004016103db90610ef7565b60405180910390fd5b8160800151156103f357600080fd5b3373ffffffffffffffffffffffffffffffffffffffff168173ffffffffffffffffffffffffffffffffffffffff161415610462576040517f08c379a000000000000000000000000000000000000000000000000000000000815260040161045990610ed7565b60405180910390fd5b600260008154809291906104759061116c565b91905055508073ffffffffffffffffffffffffffffffffffffffff166108fc349081150290604051600060405180830381858888f193505050501580156104c0573d6000803e3d6000fd5b5060018260800190151590811515815250506040518060a00160405280600254815260200183604001518152602001836060015173ffffffffffffffffffffffffffffffffffffffff1681526020018473ffffffffffffffffffffffffffffffffffffffff1681526020018360a00151815250600460006002548152602001908152602001600020600082015181600001556020820151816001015560408201518160020160006101000a81548173ffffffffffffffffffffffffffffffffffffffff021916908373ffffffffffffffffffffffffffffffffffffffff16021790555060608201518160030160006101000a81548173ffffffffffffffffffffffffffffffffffffffff021916908373ffffffffffffffffffffffffffffffffffffffff1602179055506080820151816004019080519060200190610606929190610c1a565b5090505033826060019073ffffffffffffffffffffffffffffffffffffffff16908173ffffffffffffffffffffffffffffffffffffffff1681525050816003600086815260200190815260200160002060008201518160000155602082015181600101908051906020019061067c929190610c1a565b506040820151816002015560608201518160030160006101000a81548173ffffffffffffffffffffffffffffffffffffffff021916908373ffffffffffffffffffffffffffffffffffffffff16021790555060808201518160030160146101000a81548160ff02191690831515021790555060a082015181600401908051906020019061070a929190610c1a565b509050507f7b0f5d0fc19dc18cc1e75a63c5a1274a42be1526c545057fead68717d002a2a7600154836020015184604001518660018760a0015160405161075696959493929190610f32565b60405180910390a150505050565b600360205280600052604060002060009150905080600001549080600101805461078d90611109565b80601f01602080910402602001604051908101604052809291908181526020018280546107b990611109565b80156108065780601f106107db57610100808354040283529160200191610806565b820191906000526020600020905b8154815290600101906020018083116107e957829003601f168201915b5050505050908060020154908060030160009054906101000a900473ffffffffffffffffffffffffffffffffffffffff16908060030160149054906101000a900460ff169080600401805461085a90611109565b80601f016020809104026020016040519081016040528092919081815260200182805461088690611109565b80156108d35780601f106108a8576101008083540402835291602001916108d3565b820191906000526020600020905b8154815290600101906020018083116108b657829003601f168201915b5050505050905086565b60008351116108eb57600080fd5b600082116108f857600080fd5b600081511161090657600080fd5b60003390506001600081548092919061091e9061116c565b91905055506040518060c0016040528060015481526020018581526020018481526020018273ffffffffffffffffffffffffffffffffffffffff168152602001600015158152602001838152506003600060015481526020019081526020016000206000820151816000015560208201518160010190805190602001906109a6929190610c1a565b506040820151816002015560608201518160030160006101000a81548173ffffffffffffffffffffffffffffffffffffffff021916908373ffffffffffffffffffffffffffffffffffffffff16021790555060808201518160030160146101000a81548160ff02191690831515021790555060a0820151816004019080519060200190610a34929190610c1a565b509050507f2081a1c53959478fe3c35106da0eb6f8b7a7b2144ec86e0dbec7ef0440aa2dc9600154858584600087604051610a7496959493929190610f32565b60405180910390a150505050565b60008054610a8f90611109565b80601f0160208091040260200160405190810160405280929190818152602001828054610abb90611109565b8015610b085780601f10610add57610100808354040283529160200191610b08565b820191906000526020600020905b815481529060010190602001808311610aeb57829003601f168201915b505050505081565b60046020528060005260406000206000915090508060000154908060010154908060020160009054906101000a900473ffffffffffffffffffffffffffffffffffffffff16908060030160009054906101000a900473ffffffffffffffffffffffffffffffffffffffff1690806004018054610b8b90611109565b80601f0160208091040260200160405190810160405280929190818152602001828054610bb790611109565b8015610c045780601f10610bd957610100808354040283529160200191610c04565b820191906000526020600020905b815481529060010190602001808311610be757829003601f168201915b5050505050905085565b60015481565b60025481565b828054610c2690611109565b90600052602060002090601f016020900481019282610c485760008555610c8f565b82601f10610c6157805160ff1916838001178555610c8f565b82800160010185558215610c8f579182015b82811115610c8e578251825591602001919060010190610c73565b5b509050610c9c9190610ca0565b5090565b5b80821115610cb9576000816000905550600101610ca1565b5090565b6000610cd0610ccb84611020565b610ffb565b905082815260208101848484011115610cec57610ceb611247565b5b610cf78482856110c7565b509392505050565b600082601f830112610d1457610d13611242565b5b8135610d24848260208601610cbd565b91505092915050565b600081359050610d3c816112b9565b92915050565b600080600060608486031215610d5b57610d5a611251565b5b600084013567ffffffffffffffff811115610d7957610d7861124c565b5b610d8586828701610cff565b9350506020610d9686828701610d2d565b925050604084013567ffffffffffffffff811115610db757610db661124c565b5b610dc386828701610cff565b9150509250925092565b600060208284031215610de357610de2611251565b5b6000610df184828501610d2d565b91505092915050565b610e038161107f565b82525050565b610e128161106d565b82525050565b610e2181611091565b82525050565b6000610e3282611051565b610e3c818561105c565b9350610e4c8185602086016110d6565b610e5581611256565b840191505092915050565b6000610e6d60188361105c565b9150610e7882611267565b602082019050919050565b6000610e90601c8361105c565b9150610e9b82611290565b602082019050919050565b610eaf816110bd565b82525050565b60006020820190508181036000830152610ecf8184610e27565b905092915050565b60006020820190508181036000830152610ef081610e60565b9050919050565b60006020820190508181036000830152610f1081610e83565b9050919050565b6000602082019050610f2c6000830184610ea6565b92915050565b600060c082019050610f476000830189610ea6565b8181036020830152610f598188610e27565b9050610f686040830187610ea6565b610f756060830186610dfa565b610f826080830185610e18565b81810360a0830152610f948184610e27565b9050979650505050505050565b600060a082019050610fb66000830188610ea6565b610fc36020830187610ea6565b610fd06040830186610e09565b610fdd6060830185610e09565b8181036080830152610fef8184610e27565b90509695505050505050565b6000611005611016565b9050611011828261113b565b919050565b6000604051905090565b600067ffffffffffffffff82111561103b5761103a611213565b5b61104482611256565b9050602081019050919050565b600081519050919050565b600082825260208201905092915050565b60006110788261109d565b9050919050565b600061108a8261109d565b9050919050565b60008115159050919050565b600073ffffffffffffffffffffffffffffffffffffffff82169050919050565b6000819050919050565b82818337600083830152505050565b60005b838110156110f45780820151818401526020810190506110d9565b83811115611103576000848401525b50505050565b6000600282049050600182168061112157607f821691505b60208210811415611135576111346111e4565b5b50919050565b61114482611256565b810181811067ffffffffffffffff8211171561116357611162611213565b5b80604052505050565b6000611177826110bd565b91507fffffffffffffffffffffffffffffffffffffffffffffffffffffffffffffffff8214156111aa576111a96111b5565b5b600182019050919050565b7f4e487b7100000000000000000000000000000000000000000000000000000000600052601160045260246000fd5b7f4e487b7100000000000000000000000000000000000000000000000000000000600052602260045260246000fd5b7f4e487b7100000000000000000000000000000000000000000000000000000000600052604160045260246000fd5b600080fd5b600080fd5b600080fd5b600080fd5b6000601f19601f8301169050919050565b7f5468697320697320686973206f776e20617274776f726b210000000000000000600082015250565b7f596f7520646f206e6f74206861766520656e6f756768206d6f6e657900000000600082015250565b6112c2816110bd565b81146112cd57600080fd5b5056fea2646970667358221220ed7b7a1a95996069e30f529897a256ba50c69be8a647eef2e42f948441d270e864736f6c63430008060033",
  "immutableReferences": {},
  "source": "pragma solidity ^0.8.0;\r\ncontract OpenRiver{\r\n\tstring public productName;\r\n\tuint public artworkCount = 0;\r\n\tuint public transactionCount = 0;\r\n\r\n\tstruct Artwork {\r\n\t\tuint id;\r\n\t\tstring name;\r\n\t\tuint price;\r\n\t\taddress payable owner;\r\n\t\tbool isPurchased;\r\n\t\tstring imgHash;\r\n\t}\r\n\tstruct Transaction {\r\n\t\tuint TransactionID;\r\n\t\tuint value;\r\n\t\taddress from;\r\n\t\taddress to;\r\n\t\tstring imgHash;\r\n\t}\r\n\tmapping(uint => Artwork) public artworks;\r\n\tmapping(uint => Transaction) public transactions;\r\n\tevent ArtworkCreated(\r\n\t\tuint id,\r\n\t\tstring name,\r\n\t\tuint price,\r\n\t\taddress payable owner,\r\n\t\tbool isPurchased,\r\n\t\tstring imgHash\r\n\r\n\t);\r\n\r\n\tevent ArtworkSold(\r\n\t\tuint id,\r\n\t\tstring name,\r\n\t\tuint price,\r\n\t\taddress payable owner,\r\n\t\tbool isPurchased,\r\n\t\tstring imgHash\r\n\t);\r\n\r\n\tconstructor() public {\r\n    \tproductName = \"Project\";\r\n  \t}\r\n\r\n  \tfunction uploadArtwork(string memory _name, uint _price, string memory _imgHash) public payable{\r\n  \t\trequire(bytes(_name).length > 0);\r\n  \t\trequire(_price > 0);\r\n  \t\trequire(bytes(_imgHash).length > 0);\r\n  \t\taddress payable _sender;\r\n  \t\t_sender = payable(msg.sender);\r\n  \t\tartworkCount ++;\r\n  \t\tartworks[artworkCount] = Artwork(artworkCount,_name,_price,_sender,false,_imgHash);\r\n  \t\temit ArtworkCreated(artworkCount,_name,_price,_sender,false,_imgHash);\r\n  \t}\r\n\r\n  \tfunction purchaseProduct(uint _id) public payable {\r\n  \t\taddress payable _sender;\r\n  \t\t_sender = payable(msg.sender);\r\n  \t\tArtwork memory _artwork = artworks[_id];\r\n  \t\taddress payable _seller = _artwork.owner;\r\n \t\trequire (_artwork.id <= artworkCount);\r\n \t\trequire(msg.value >= _artwork.price, \"You do not have enough money\");\r\n \t\trequire(!_artwork.isPurchased);\r\n \t\trequire(_seller != msg.sender, \"This is his own artwork!\");\r\n  \t\ttransactionCount ++;\r\n  \t\t_seller.transfer(msg.value);\r\n  \t\t_artwork.isPurchased = true;\r\n  \t\ttransactions[transactionCount] = Transaction(transactionCount,_artwork.price,_artwork.owner,_sender,_artwork.imgHash);\r\n  \t\t_artwork.owner = payable(msg.sender);\r\n  \t\tartworks[_id] = _artwork;\r\n  \t\temit ArtworkSold(artworkCount,_artwork.name,_artwork.price,_sender,true,_artwork.imgHash);\r\n  \t}\r\n\r\n  \t//check the data type of msg.sender\r\n  \t// function getID () constant returns(uint){\r\n  \t// \treturn msg.sender;\r\n  \t// }\r\n  \t\r\n}",
  "sourcePath": "C:/Users/phang/Desktop/open-river/src/contracts/OpenRiver.sol",
  "compiler": {
    "name": "solc",
    "version": "0.8.6+commit.11564f7e.Emscripten.clang"
  },
  "schemaVersion": "3.4.1",
  "updatedAt": "2021-07-27T02:48:19.833Z",
  "networkType": "ethereum",
  "devdoc": {
    "kind": "dev",
    "methods": {},
    "version": 1
  },
  "userdoc": {
    "kind": "user",
    "methods": {},
    "version": 1
  }
}